{
  "contractName": "ArtToken",
  "abi": [
    {
      "inputs": [],
      "stateMutability": "nonpayable",
      "type": "constructor"
    },
    {
      "anonymous": false,
      "inputs": [
        {
          "indexed": true,
          "internalType": "address",
          "name": "owner",
          "type": "address"
        },
        {
          "indexed": true,
          "internalType": "address",
          "name": "approved",
          "type": "address"
        },
        {
          "indexed": true,
          "internalType": "uint256",
          "name": "tokenId",
          "type": "uint256"
        }
      ],
      "name": "Approval",
      "type": "event"
    },
    {
      "anonymous": false,
      "inputs": [
        {
          "indexed": true,
          "internalType": "address",
          "name": "owner",
          "type": "address"
        },
        {
          "indexed": true,
          "internalType": "address",
          "name": "operator",
          "type": "address"
        },
        {
          "indexed": false,
          "internalType": "bool",
          "name": "approved",
          "type": "bool"
        }
      ],
      "name": "ApprovalForAll",
      "type": "event"
    },
    {
      "anonymous": false,
      "inputs": [
        {
          "indexed": true,
          "internalType": "address",
          "name": "from",
          "type": "address"
        },
        {
          "indexed": true,
          "internalType": "address",
          "name": "to",
          "type": "address"
        },
        {
          "indexed": true,
          "internalType": "uint256",
          "name": "tokenId",
          "type": "uint256"
        }
      ],
      "name": "Transfer",
      "type": "event"
    },
    {
      "inputs": [
        {
          "internalType": "uint256",
          "name": "",
          "type": "uint256"
        }
      ],
      "name": "Items",
      "outputs": [
        {
          "internalType": "uint256",
          "name": "id",
          "type": "uint256"
        },
        {
          "internalType": "address",
          "name": "creator",
          "type": "address"
        },
        {
          "internalType": "string",
          "name": "uri",
          "type": "string"
        }
      ],
      "stateMutability": "view",
      "type": "function",
      "constant": true
    },
    {
      "inputs": [
        {
          "internalType": "address",
          "name": "to",
          "type": "address"
        },
        {
          "internalType": "uint256",
          "name": "tokenId",
          "type": "uint256"
        }
      ],
      "name": "approve",
      "outputs": [],
      "stateMutability": "nonpayable",
      "type": "function"
    },
    {
      "inputs": [
        {
          "internalType": "address",
          "name": "owner",
          "type": "address"
        }
      ],
      "name": "balanceOf",
      "outputs": [
        {
          "internalType": "uint256",
          "name": "",
          "type": "uint256"
        }
      ],
      "stateMutability": "view",
      "type": "function",
      "constant": true
    },
    {
      "inputs": [
        {
          "internalType": "uint256",
          "name": "tokenId",
          "type": "uint256"
        }
      ],
      "name": "getApproved",
      "outputs": [
        {
          "internalType": "address",
          "name": "",
          "type": "address"
        }
      ],
      "stateMutability": "view",
      "type": "function",
      "constant": true
    },
    {
      "inputs": [
        {
          "internalType": "address",
          "name": "owner",
          "type": "address"
        },
        {
          "internalType": "address",
          "name": "operator",
          "type": "address"
        }
      ],
      "name": "isApprovedForAll",
      "outputs": [
        {
          "internalType": "bool",
          "name": "",
          "type": "bool"
        }
      ],
      "stateMutability": "view",
      "type": "function",
      "constant": true
    },
    {
      "inputs": [],
      "name": "marketplace",
      "outputs": [
        {
          "internalType": "address",
          "name": "",
          "type": "address"
        }
      ],
      "stateMutability": "view",
      "type": "function",
      "constant": true
    },
    {
      "inputs": [],
      "name": "name",
      "outputs": [
        {
          "internalType": "string",
          "name": "",
          "type": "string"
        }
      ],
      "stateMutability": "view",
      "type": "function",
      "constant": true
    },
    {
      "inputs": [
        {
          "internalType": "uint256",
          "name": "tokenId",
          "type": "uint256"
        }
      ],
      "name": "ownerOf",
      "outputs": [
        {
          "internalType": "address",
          "name": "",
          "type": "address"
        }
      ],
      "stateMutability": "view",
      "type": "function",
      "constant": true
    },
    {
      "inputs": [
        {
          "internalType": "address",
          "name": "from",
          "type": "address"
        },
        {
          "internalType": "address",
          "name": "to",
          "type": "address"
        },
        {
          "internalType": "uint256",
          "name": "tokenId",
          "type": "uint256"
        }
      ],
      "name": "safeTransferFrom",
      "outputs": [],
      "stateMutability": "nonpayable",
      "type": "function"
    },
    {
      "inputs": [
        {
          "internalType": "address",
          "name": "from",
          "type": "address"
        },
        {
          "internalType": "address",
          "name": "to",
          "type": "address"
        },
        {
          "internalType": "uint256",
          "name": "tokenId",
          "type": "uint256"
        },
        {
          "internalType": "bytes",
          "name": "data",
          "type": "bytes"
        }
      ],
      "name": "safeTransferFrom",
      "outputs": [],
      "stateMutability": "nonpayable",
      "type": "function"
    },
    {
      "inputs": [
        {
          "internalType": "address",
          "name": "operator",
          "type": "address"
        },
        {
          "internalType": "bool",
          "name": "approved",
          "type": "bool"
        }
      ],
      "name": "setApprovalForAll",
      "outputs": [],
      "stateMutability": "nonpayable",
      "type": "function"
    },
    {
      "inputs": [
        {
          "internalType": "bytes4",
          "name": "interfaceId",
          "type": "bytes4"
        }
      ],
      "name": "supportsInterface",
      "outputs": [
        {
          "internalType": "bool",
          "name": "",
          "type": "bool"
        }
      ],
      "stateMutability": "view",
      "type": "function",
      "constant": true
    },
    {
      "inputs": [],
      "name": "symbol",
      "outputs": [
        {
          "internalType": "string",
          "name": "",
          "type": "string"
        }
      ],
      "stateMutability": "view",
      "type": "function",
      "constant": true
    },
    {
      "inputs": [
        {
          "internalType": "uint256",
          "name": "index",
          "type": "uint256"
        }
      ],
      "name": "tokenByIndex",
      "outputs": [
        {
          "internalType": "uint256",
          "name": "",
          "type": "uint256"
        }
      ],
      "stateMutability": "view",
      "type": "function",
      "constant": true
    },
    {
      "inputs": [
        {
          "internalType": "address",
          "name": "owner",
          "type": "address"
        },
        {
          "internalType": "uint256",
          "name": "index",
          "type": "uint256"
        }
      ],
      "name": "tokenOfOwnerByIndex",
      "outputs": [
        {
          "internalType": "uint256",
          "name": "",
          "type": "uint256"
        }
      ],
      "stateMutability": "view",
      "type": "function",
      "constant": true
    },
    {
      "inputs": [],
      "name": "totalSupply",
      "outputs": [
        {
          "internalType": "uint256",
          "name": "",
          "type": "uint256"
        }
      ],
      "stateMutability": "view",
      "type": "function",
      "constant": true
    },
    {
      "inputs": [
        {
          "internalType": "address",
          "name": "from",
          "type": "address"
        },
        {
          "internalType": "address",
          "name": "to",
          "type": "address"
        },
        {
          "internalType": "uint256",
          "name": "tokenId",
          "type": "uint256"
        }
      ],
      "name": "transferFrom",
      "outputs": [],
      "stateMutability": "nonpayable",
      "type": "function"
    },
    {
      "inputs": [
        {
          "internalType": "string",
          "name": "uri",
          "type": "string"
        }
      ],
      "name": "mint",
      "outputs": [
        {
          "internalType": "uint256",
          "name": "",
          "type": "uint256"
        }
      ],
      "stateMutability": "nonpayable",
      "type": "function"
    },
    {
      "inputs": [
        {
          "internalType": "uint256",
          "name": "tokenId",
          "type": "uint256"
        }
      ],
      "name": "tokenURI",
      "outputs": [
        {
          "internalType": "string",
          "name": "",
          "type": "string"
        }
      ],
      "stateMutability": "view",
      "type": "function",
      "constant": true
    },
    {
      "inputs": [
        {
          "internalType": "address",
          "name": "market",
          "type": "address"
        }
      ],
      "name": "setMarketplace",
      "outputs": [],
      "stateMutability": "nonpayable",
      "type": "function"
    }
  ],
  "bytecode": "0x608060405234801561000f575f80fd5b506040518060400160405280600881526020017f417274546f6b656e0000000000000000000000000000000000000000000000008152506040518060400160405280600481526020017f4152544b00000000000000000000000000000000000000000000000000000000815250815f908161008a91906102dc565b50806001908161009a91906102dc565b5050506103ab565b5f81519050919050565b7f4e487b71000000000000000000000000000000000000000000000000000000005f52604160045260245ffd5b7f4e487b71000000000000000000000000000000000000000000000000000000005f52602260045260245ffd5b5f600282049050600182168061011d57607f821691505b6020821081036101305761012f6100d9565b5b50919050565b5f819050815f5260205f209050919050565b5f6020601f8301049050919050565b5f82821b905092915050565b5f600883026101927fffffffffffffffffffffffffffffffffffffffffffffffffffffffffffffffff82610157565b61019c8683610157565b95508019841693508086168417925050509392505050565b5f819050919050565b5f819050919050565b5f6101e06101db6101d6846101b4565b6101bd565b6101b4565b9050919050565b5f819050919050565b6101f9836101c6565b61020d610205826101e7565b848454610163565b825550505050565b5f90565b610221610215565b61022c8184846101f0565b505050565b5b8181101561024f576102445f82610219565b600181019050610232565b5050565b601f8211156102945761026581610136565b61026e84610148565b8101602085101561027d578190505b61029161028985610148565b830182610231565b50505b505050565b5f82821c905092915050565b5f6102b45f1984600802610299565b1980831691505092915050565b5f6102cc83836102a5565b9150826002028217905092915050565b6102e5826100a2565b67ffffffffffffffff8111156102fe576102fd6100ac565b5b6103088254610106565b610313828285610253565b5f60209050601f831160018114610344575f8415610332578287015190505b61033c85826102c1565b8655506103a3565b601f19841661035286610136565b5f5b8281101561037957848901518255600182019150602085019450602081019050610354565b868310156103965784890151610392601f8916826102a5565b8355505b6001600288020188555050505b505050505050565b613180806103b85f395ff3fe608060405234801561000f575f80fd5b506004361061012a575f3560e01c80636352211e116100ab578063abc8c7af1161006f578063abc8c7af14610366578063b88d4fde14610384578063c87b56dd146103a0578063d85d3d27146103d0578063e985e9c5146104005761012a565b80636352211e146102b057806370a08231146102e057806373ad6c2d1461031057806395d89b411461032c578063a22cb4651461034a5761012a565b806318160ddd116100f257806318160ddd146101fa57806323b872dd146102185780632f745c591461023457806342842e0e146102645780634f6ccce7146102805761012a565b806301ffc9a71461012e57806306fdde031461015e578063081812fc1461017c578063095ea7b3146101ac57806317b47cc4146101c8575b5f80fd5b61014860048036038101906101439190611f10565b610430565b6040516101559190611f55565b60405180910390f35b6101666104a9565b6040516101739190611fde565b60405180910390f35b61019660048036038101906101919190612031565b610538565b6040516101a3919061209b565b60405180910390f35b6101c660048036038101906101c191906120de565b61057a565b005b6101e260048036038101906101dd9190612031565b610690565b6040516101f19392919061212b565b60405180910390f35b61020261075b565b60405161020f9190612167565b60405180910390f35b610232600480360381019061022d9190612180565b610767565b005b61024e600480360381019061024991906120de565b6107c7565b60405161025b9190612167565b60405180910390f35b61027e60048036038101906102799190612180565b610867565b005b61029a60048036038101906102959190612031565b610886565b6040516102a79190612167565b60405180910390f35b6102ca60048036038101906102c59190612031565b6108f4565b6040516102d7919061209b565b60405180910390f35b6102fa60048036038101906102f591906121d0565b610978565b6040516103079190612167565b60405180910390f35b61032a600480360381019061032591906121d0565b610a2c565b005b610334610a6f565b6040516103419190611fde565b60405180910390f35b610364600480360381019061035f9190612225565b610aff565b005b61036e610b15565b60405161037b919061209b565b60405180910390f35b61039e6004803603810190610399919061238f565b610b3a565b005b6103ba60048036038101906103b59190612031565b610b9c565b6040516103c79190611fde565b60405180910390f35b6103ea60048036038101906103e591906124ad565b610c88565b6040516103f79190612167565b60405180910390f35b61041a600480360381019061041591906124f4565b610d87565b6040516104279190611f55565b60405180910390f35b5f7f780e9d63000000000000000000000000000000000000000000000000000000007bffffffffffffffffffffffffffffffffffffffffffffffffffffffff1916827bffffffffffffffffffffffffffffffffffffffffffffffffffffffff191614806104a257506104a182610e15565b5b9050919050565b60605f80546104b79061255f565b80601f01602080910402602001604051908101604052809291908181526020018280546104e39061255f565b801561052e5780601f106105055761010080835404028352916020019161052e565b820191905f5260205f20905b81548152906001019060200180831161051157829003601f168201915b5050505050905090565b5f61054282610ef6565b60045f8381526020019081526020015f205f9054906101000a900473ffffffffffffffffffffffffffffffffffffffff169050919050565b5f610584826108f4565b90508073ffffffffffffffffffffffffffffffffffffffff168373ffffffffffffffffffffffffffffffffffffffff16036105f4576040517f08c379a00000000000000000000000000000000000000000000000000000000081526004016105eb906125ff565b60405180910390fd5b8073ffffffffffffffffffffffffffffffffffffffff16610613610f41565b73ffffffffffffffffffffffffffffffffffffffff16148061064257506106418161063c610f41565b610d87565b5b610681576040517f08c379a00000000000000000000000000000000000000000000000000000000081526004016106789061268d565b60405180910390fd5b61068b8383610f48565b505050565b600c602052805f5260405f205f91509050805f015490806001015f9054906101000a900473ffffffffffffffffffffffffffffffffffffffff16908060020180546106da9061255f565b80601f01602080910402602001604051908101604052809291908181526020018280546107069061255f565b80156107515780601f1061072857610100808354040283529160200191610751565b820191905f5260205f20905b81548152906001019060200180831161073457829003601f168201915b5050505050905083565b5f600880549050905090565b610778610772610f41565b82610ffe565b6107b7576040517f08c379a00000000000000000000000000000000000000000000000000000000081526004016107ae9061271b565b60405180910390fd5b6107c2838383611092565b505050565b5f6107d183610978565b8210610812576040517f08c379a0000000000000000000000000000000000000000000000000000000008152600401610809906127a9565b60405180910390fd5b60065f8473ffffffffffffffffffffffffffffffffffffffff1673ffffffffffffffffffffffffffffffffffffffff1681526020019081526020015f205f8381526020019081526020015f2054905092915050565b61088183838360405180602001604052805f815250610b3a565b505050565b5f61088f61075b565b82106108d0576040517f08c379a00000000000000000000000000000000000000000000000000000000081526004016108c790612837565b60405180910390fd5b600882815481106108e4576108e3612855565b5b905f5260205f2001549050919050565b5f806108ff8361137e565b90505f73ffffffffffffffffffffffffffffffffffffffff168173ffffffffffffffffffffffffffffffffffffffff160361096f576040517f08c379a0000000000000000000000000000000000000000000000000000000008152600401610966906128cc565b60405180910390fd5b80915050919050565b5f8073ffffffffffffffffffffffffffffffffffffffff168273ffffffffffffffffffffffffffffffffffffffff16036109e7576040517f08c379a00000000000000000000000000000000000000000000000000000000081526004016109de9061295a565b60405180910390fd5b60035f8373ffffffffffffffffffffffffffffffffffffffff1673ffffffffffffffffffffffffffffffffffffffff1681526020019081526020015f20549050919050565b80600b5f6101000a81548173ffffffffffffffffffffffffffffffffffffffff021916908373ffffffffffffffffffffffffffffffffffffffff16021790555050565b606060018054610a7e9061255f565b80601f0160208091040260200160405190810160405280929190818152602001828054610aaa9061255f565b8015610af55780601f10610acc57610100808354040283529160200191610af5565b820191905f5260205f20905b815481529060010190602001808311610ad857829003601f168201915b5050505050905090565b610b11610b0a610f41565b83836113b7565b5050565b600b5f9054906101000a900473ffffffffffffffffffffffffffffffffffffffff1681565b610b4b610b45610f41565b83610ffe565b610b8a576040517f08c379a0000000000000000000000000000000000000000000000000000000008152600401610b819061271b565b60405180910390fd5b610b968484848461151e565b50505050565b6060610ba78261157a565b610be6576040517f08c379a0000000000000000000000000000000000000000000000000000000008152600401610bdd906129e8565b60405180910390fd5b600c5f8381526020019081526020015f206002018054610c059061255f565b80601f0160208091040260200160405190810160405280929190818152602001828054610c319061255f565b8015610c7c5780601f10610c5357610100808354040283529160200191610c7c565b820191905f5260205f20905b815481529060010190602001808311610c5f57829003601f168201915b50505050509050919050565b5f610c93600a6115ba565b5f610c9e600a6115ce565b9050610caa33826115da565b610cd5600b5f9054906101000a900473ffffffffffffffffffffffffffffffffffffffff168261057a565b60405180606001604052808281526020013373ffffffffffffffffffffffffffffffffffffffff16815260200184815250600c5f8381526020019081526020015f205f820151815f01556020820151816001015f6101000a81548173ffffffffffffffffffffffffffffffffffffffff021916908373ffffffffffffffffffffffffffffffffffffffff1602179055506040820151816002019081610d7a9190612ba3565b5090505080915050919050565b5f60055f8473ffffffffffffffffffffffffffffffffffffffff1673ffffffffffffffffffffffffffffffffffffffff1681526020019081526020015f205f8373ffffffffffffffffffffffffffffffffffffffff1673ffffffffffffffffffffffffffffffffffffffff1681526020019081526020015f205f9054906101000a900460ff16905092915050565b5f7f80ac58cd000000000000000000000000000000000000000000000000000000007bffffffffffffffffffffffffffffffffffffffffffffffffffffffff1916827bffffffffffffffffffffffffffffffffffffffffffffffffffffffff19161480610edf57507f5b5e139f000000000000000000000000000000000000000000000000000000007bffffffffffffffffffffffffffffffffffffffffffffffffffffffff1916827bffffffffffffffffffffffffffffffffffffffffffffffffffffffff1916145b80610eef5750610eee826115f7565b5b9050919050565b610eff8161157a565b610f3e576040517f08c379a0000000000000000000000000000000000000000000000000000000008152600401610f35906128cc565b60405180910390fd5b50565b5f33905090565b8160045f8381526020019081526020015f205f6101000a81548173ffffffffffffffffffffffffffffffffffffffff021916908373ffffffffffffffffffffffffffffffffffffffff160217905550808273ffffffffffffffffffffffffffffffffffffffff16610fb8836108f4565b73ffffffffffffffffffffffffffffffffffffffff167f8c5be1e5ebec7d5bd14f71427d1e84f3dd0314c0f7b2291e5b200ac8c7c3b92560405160405180910390a45050565b5f80611009836108f4565b90508073ffffffffffffffffffffffffffffffffffffffff168473ffffffffffffffffffffffffffffffffffffffff16148061104b575061104a8185610d87565b5b8061108957508373ffffffffffffffffffffffffffffffffffffffff1661107184610538565b73ffffffffffffffffffffffffffffffffffffffff16145b91505092915050565b8273ffffffffffffffffffffffffffffffffffffffff166110b2826108f4565b73ffffffffffffffffffffffffffffffffffffffff1614611108576040517f08c379a00000000000000000000000000000000000000000000000000000000081526004016110ff90612ce2565b60405180910390fd5b5f73ffffffffffffffffffffffffffffffffffffffff168273ffffffffffffffffffffffffffffffffffffffff1603611176576040517f08c379a000000000000000000000000000000000000000000000000000000000815260040161116d90612d70565b60405180910390fd5b6111838383836001611660565b8273ffffffffffffffffffffffffffffffffffffffff166111a3826108f4565b73ffffffffffffffffffffffffffffffffffffffff16146111f9576040517f08c379a00000000000000000000000000000000000000000000000000000000081526004016111f090612ce2565b60405180910390fd5b60045f8281526020019081526020015f205f6101000a81549073ffffffffffffffffffffffffffffffffffffffff0219169055600160035f8573ffffffffffffffffffffffffffffffffffffffff1673ffffffffffffffffffffffffffffffffffffffff1681526020019081526020015f205f8282540392505081905550600160035f8473ffffffffffffffffffffffffffffffffffffffff1673ffffffffffffffffffffffffffffffffffffffff1681526020019081526020015f205f82825401925050819055508160025f8381526020019081526020015f205f6101000a81548173ffffffffffffffffffffffffffffffffffffffff021916908373ffffffffffffffffffffffffffffffffffffffff160217905550808273ffffffffffffffffffffffffffffffffffffffff168473ffffffffffffffffffffffffffffffffffffffff167fddf252ad1be2c89b69c2b068fc378daa952ba7f163c4a11628f55a4df523b3ef60405160405180910390a461137983838360016117bb565b505050565b5f60025f8381526020019081526020015f205f9054906101000a900473ffffffffffffffffffffffffffffffffffffffff169050919050565b8173ffffffffffffffffffffffffffffffffffffffff168373ffffffffffffffffffffffffffffffffffffffff1603611425576040517f08c379a000000000000000000000000000000000000000000000000000000000815260040161141c90612dd8565b60405180910390fd5b8060055f8573ffffffffffffffffffffffffffffffffffffffff1673ffffffffffffffffffffffffffffffffffffffff1681526020019081526020015f205f8473ffffffffffffffffffffffffffffffffffffffff1673ffffffffffffffffffffffffffffffffffffffff1681526020019081526020015f205f6101000a81548160ff0219169083151502179055508173ffffffffffffffffffffffffffffffffffffffff168373ffffffffffffffffffffffffffffffffffffffff167f17307eab39ab6107e8899845ad3d59bd9653f200f220920489ca2b5937696c31836040516115119190611f55565b60405180910390a3505050565b611529848484611092565b611535848484846117c1565b611574576040517f08c379a000000000000000000000000000000000000000000000000000000000815260040161156b90612e66565b60405180910390fd5b50505050565b5f8073ffffffffffffffffffffffffffffffffffffffff1661159b8361137e565b73ffffffffffffffffffffffffffffffffffffffff1614159050919050565b6001815f015f828254019250508190555050565b5f815f01549050919050565b6115f3828260405180602001604052805f815250611943565b5050565b5f7f01ffc9a7000000000000000000000000000000000000000000000000000000007bffffffffffffffffffffffffffffffffffffffffffffffffffffffff1916827bffffffffffffffffffffffffffffffffffffffffffffffffffffffff1916149050919050565b61166c8484848461199d565b60018111156116b0576040517f08c379a00000000000000000000000000000000000000000000000000000000081526004016116a790612ef4565b60405180910390fd5b5f8290505f73ffffffffffffffffffffffffffffffffffffffff168573ffffffffffffffffffffffffffffffffffffffff16036116f5576116f0816119a3565b611734565b8373ffffffffffffffffffffffffffffffffffffffff168573ffffffffffffffffffffffffffffffffffffffff16146117335761173285826119e7565b5b5b5f73ffffffffffffffffffffffffffffffffffffffff168473ffffffffffffffffffffffffffffffffffffffff16036117755761177081611b3d565b6117b4565b8473ffffffffffffffffffffffffffffffffffffffff168473ffffffffffffffffffffffffffffffffffffffff16146117b3576117b28482611bfd565b5b5b5050505050565b50505050565b5f6117e18473ffffffffffffffffffffffffffffffffffffffff16611c75565b15611936578373ffffffffffffffffffffffffffffffffffffffff1663150b7a0261180a610f41565b8786866040518563ffffffff1660e01b815260040161182c9493929190612f64565b6020604051808303815f875af192505050801561186757506040513d601f19601f820116820180604052508101906118649190612fc2565b60015b6118e6573d805f8114611895576040519150601f19603f3d011682016040523d82523d5f602084013e61189a565b606091505b505f8151036118de576040517f08c379a00000000000000000000000000000000000000000000000000000000081526004016118d590612e66565b60405180910390fd5b805181602001fd5b63150b7a0260e01b7bffffffffffffffffffffffffffffffffffffffffffffffffffffffff1916817bffffffffffffffffffffffffffffffffffffffffffffffffffffffff19161491505061193b565b600190505b949350505050565b61194d8383611c97565b6119595f8484846117c1565b611998576040517f08c379a000000000000000000000000000000000000000000000000000000000815260040161198f90612e66565b60405180910390fd5b505050565b50505050565b60088054905060095f8381526020019081526020015f2081905550600881908060018154018082558091505060019003905f5260205f20015f909190919091505550565b5f60016119f384610978565b6119fd919061301a565b90505f60075f8481526020019081526020015f20549050818114611ad4575f60065f8673ffffffffffffffffffffffffffffffffffffffff1673ffffffffffffffffffffffffffffffffffffffff1681526020019081526020015f205f8481526020019081526020015f205490508060065f8773ffffffffffffffffffffffffffffffffffffffff1673ffffffffffffffffffffffffffffffffffffffff1681526020019081526020015f205f8481526020019081526020015f20819055508160075f8381526020019081526020015f2081905550505b60075f8481526020019081526020015f205f905560065f8573ffffffffffffffffffffffffffffffffffffffff1673ffffffffffffffffffffffffffffffffffffffff1681526020019081526020015f205f8381526020019081526020015f205f905550505050565b5f6001600880549050611b50919061301a565b90505f60095f8481526020019081526020015f205490505f60088381548110611b7c57611b7b612855565b5b905f5260205f20015490508060088381548110611b9c57611b9b612855565b5b905f5260205f2001819055508160095f8381526020019081526020015f208190555060095f8581526020019081526020015f205f90556008805480611be457611be361304d565b5b600190038181905f5260205f20015f9055905550505050565b5f611c0783610978565b90508160065f8573ffffffffffffffffffffffffffffffffffffffff1673ffffffffffffffffffffffffffffffffffffffff1681526020019081526020015f205f8381526020019081526020015f20819055508060075f8481526020019081526020015f2081905550505050565b5f808273ffffffffffffffffffffffffffffffffffffffff163b119050919050565b5f73ffffffffffffffffffffffffffffffffffffffff168273ffffffffffffffffffffffffffffffffffffffff1603611d05576040517f08c379a0000000000000000000000000000000000000000000000000000000008152600401611cfc906130c4565b60405180910390fd5b611d0e8161157a565b15611d4e576040517f08c379a0000000000000000000000000000000000000000000000000000000008152600401611d459061312c565b60405180910390fd5b611d5b5f83836001611660565b611d648161157a565b15611da4576040517f08c379a0000000000000000000000000000000000000000000000000000000008152600401611d9b9061312c565b60405180910390fd5b600160035f8473ffffffffffffffffffffffffffffffffffffffff1673ffffffffffffffffffffffffffffffffffffffff1681526020019081526020015f205f82825401925050819055508160025f8381526020019081526020015f205f6101000a81548173ffffffffffffffffffffffffffffffffffffffff021916908373ffffffffffffffffffffffffffffffffffffffff160217905550808273ffffffffffffffffffffffffffffffffffffffff165f73ffffffffffffffffffffffffffffffffffffffff167fddf252ad1be2c89b69c2b068fc378daa952ba7f163c4a11628f55a4df523b3ef60405160405180910390a4611ea65f838360016117bb565b5050565b5f604051905090565b5f80fd5b5f80fd5b5f7fffffffff0000000000000000000000000000000000000000000000000000000082169050919050565b611eef81611ebb565b8114611ef9575f80fd5b50565b5f81359050611f0a81611ee6565b92915050565b5f60208284031215611f2557611f24611eb3565b5b5f611f3284828501611efc565b91505092915050565b5f8115159050919050565b611f4f81611f3b565b82525050565b5f602082019050611f685f830184611f46565b92915050565b5f81519050919050565b5f82825260208201905092915050565b8281835e5f83830152505050565b5f601f19601f8301169050919050565b5f611fb082611f6e565b611fba8185611f78565b9350611fca818560208601611f88565b611fd381611f96565b840191505092915050565b5f6020820190508181035f830152611ff68184611fa6565b905092915050565b5f819050919050565b61201081611ffe565b811461201a575f80fd5b50565b5f8135905061202b81612007565b92915050565b5f6020828403121561204657612045611eb3565b5b5f6120538482850161201d565b91505092915050565b5f73ffffffffffffffffffffffffffffffffffffffff82169050919050565b5f6120858261205c565b9050919050565b6120958161207b565b82525050565b5f6020820190506120ae5f83018461208c565b92915050565b6120bd8161207b565b81146120c7575f80fd5b50565b5f813590506120d8816120b4565b92915050565b5f80604083850312156120f4576120f3611eb3565b5b5f612101858286016120ca565b92505060206121128582860161201d565b9150509250929050565b61212581611ffe565b82525050565b5f60608201905061213e5f83018661211c565b61214b602083018561208c565b818103604083015261215d8184611fa6565b9050949350505050565b5f60208201905061217a5f83018461211c565b92915050565b5f805f6060848603121561219757612196611eb3565b5b5f6121a4868287016120ca565b93505060206121b5868287016120ca565b92505060406121c68682870161201d565b9150509250925092565b5f602082840312156121e5576121e4611eb3565b5b5f6121f2848285016120ca565b91505092915050565b61220481611f3b565b811461220e575f80fd5b50565b5f8135905061221f816121fb565b92915050565b5f806040838503121561223b5761223a611eb3565b5b5f612248858286016120ca565b925050602061225985828601612211565b9150509250929050565b5f80fd5b5f80fd5b7f4e487b71000000000000000000000000000000000000000000000000000000005f52604160045260245ffd5b6122a182611f96565b810181811067ffffffffffffffff821117156122c0576122bf61226b565b5b80604052505050565b5f6122d2611eaa565b90506122de8282612298565b919050565b5f67ffffffffffffffff8211156122fd576122fc61226b565b5b61230682611f96565b9050602081019050919050565b828183375f83830152505050565b5f61233361232e846122e3565b6122c9565b90508281526020810184848401111561234f5761234e612267565b5b61235a848285612313565b509392505050565b5f82601f83011261237657612375612263565b5b8135612386848260208601612321565b91505092915050565b5f805f80608085870312156123a7576123a6611eb3565b5b5f6123b4878288016120ca565b94505060206123c5878288016120ca565b93505060406123d68782880161201d565b925050606085013567ffffffffffffffff8111156123f7576123f6611eb7565b5b61240387828801612362565b91505092959194509250565b5f67ffffffffffffffff8211156124295761242861226b565b5b61243282611f96565b9050602081019050919050565b5f61245161244c8461240f565b6122c9565b90508281526020810184848401111561246d5761246c612267565b5b612478848285612313565b509392505050565b5f82601f83011261249457612493612263565b5b81356124a484826020860161243f565b91505092915050565b5f602082840312156124c2576124c1611eb3565b5b5f82013567ffffffffffffffff8111156124df576124de611eb7565b5b6124eb84828501612480565b91505092915050565b5f806040838503121561250a57612509611eb3565b5b5f612517858286016120ca565b9250506020612528858286016120ca565b9150509250929050565b7f4e487b71000000000000000000000000000000000000000000000000000000005f52602260045260245ffd5b5f600282049050600182168061257657607f821691505b60208210810361258957612588612532565b5b50919050565b7f4552433732313a20617070726f76616c20746f2063757272656e74206f776e655f8201527f7200000000000000000000000000000000000000000000000000000000000000602082015250565b5f6125e9602183611f78565b91506125f48261258f565b604082019050919050565b5f6020820190508181035f830152612616816125dd565b9050919050565b7f4552433732313a20617070726f76652063616c6c6572206973206e6f7420746f5f8201527f6b656e206f776e6572206f7220617070726f76656420666f7220616c6c000000602082015250565b5f612677603d83611f78565b91506126828261261d565b604082019050919050565b5f6020820190508181035f8301526126a48161266b565b9050919050565b7f4552433732313a2063616c6c6572206973206e6f7420746f6b656e206f776e655f8201527f72206f7220617070726f76656400000000000000000000000000000000000000602082015250565b5f612705602d83611f78565b9150612710826126ab565b604082019050919050565b5f6020820190508181035f830152612732816126f9565b9050919050565b7f455243373231456e756d657261626c653a206f776e657220696e646578206f755f8201527f74206f6620626f756e6473000000000000000000000000000000000000000000602082015250565b5f612793602b83611f78565b915061279e82612739565b604082019050919050565b5f6020820190508181035f8301526127c081612787565b9050919050565b7f455243373231456e756d657261626c653a20676c6f62616c20696e646578206f5f8201527f7574206f6620626f756e64730000000000000000000000000000000000000000602082015250565b5f612821602c83611f78565b915061282c826127c7565b604082019050919050565b5f6020820190508181035f83015261284e81612815565b9050919050565b7f4e487b71000000000000000000000000000000000000000000000000000000005f52603260045260245ffd5b7f4552433732313a20696e76616c696420746f6b656e20494400000000000000005f82015250565b5f6128b6601883611f78565b91506128c182612882565b602082019050919050565b5f6020820190508181035f8301526128e3816128aa565b9050919050565b7f4552433732313a2061646472657373207a65726f206973206e6f7420612076615f8201527f6c6964206f776e65720000000000000000000000000000000000000000000000602082015250565b5f612944602983611f78565b915061294f826128ea565b604082019050919050565b5f6020820190508181035f83015261297181612938565b9050919050565b7f45524337323155524953746f726167653a2055524920717565727920666f72205f8201527f6e6f6e6578697374656e7420746f6b656e000000000000000000000000000000602082015250565b5f6129d2603183611f78565b91506129dd82612978565b604082019050919050565b5f6020820190508181035f8301526129ff816129c6565b9050919050565b5f819050815f5260205f209050919050565b5f6020601f8301049050919050565b5f82821b905092915050565b5f60088302612a627fffffffffffffffffffffffffffffffffffffffffffffffffffffffffffffffff82612a27565b612a6c8683612a27565b95508019841693508086168417925050509392505050565b5f819050919050565b5f612aa7612aa2612a9d84611ffe565b612a84565b611ffe565b9050919050565b5f819050919050565b612ac083612a8d565b612ad4612acc82612aae565b848454612a33565b825550505050565b5f90565b612ae8612adc565b612af3818484612ab7565b505050565b5b81811015612b1657612b0b5f82612ae0565b600181019050612af9565b5050565b601f821115612b5b57612b2c81612a06565b612b3584612a18565b81016020851015612b44578190505b612b58612b5085612a18565b830182612af8565b50505b505050565b5f82821c905092915050565b5f612b7b5f1984600802612b60565b1980831691505092915050565b5f612b938383612b6c565b9150826002028217905092915050565b612bac82611f6e565b67ffffffffffffffff811115612bc557612bc461226b565b5b612bcf825461255f565b612bda828285612b1a565b5f60209050601f831160018114612c0b575f8415612bf9578287015190505b612c038582612b88565b865550612c6a565b601f198416612c1986612a06565b5f5b82811015612c4057848901518255600182019150602085019450602081019050612c1b565b86831015612c5d5784890151612c59601f891682612b6c565b8355505b6001600288020188555050505b505050505050565b7f4552433732313a207472616e736665722066726f6d20696e636f7272656374205f8201527f6f776e6572000000000000000000000000000000000000000000000000000000602082015250565b5f612ccc602583611f78565b9150612cd782612c72565b604082019050919050565b5f6020820190508181035f830152612cf981612cc0565b9050919050565b7f4552433732313a207472616e7366657220746f20746865207a65726f206164645f8201527f7265737300000000000000000000000000000000000000000000000000000000602082015250565b5f612d5a602483611f78565b9150612d6582612d00565b604082019050919050565b5f6020820190508181035f830152612d8781612d4e565b9050919050565b7f4552433732313a20617070726f766520746f2063616c6c6572000000000000005f82015250565b5f612dc2601983611f78565b9150612dcd82612d8e565b602082019050919050565b5f6020820190508181035f830152612def81612db6565b9050919050565b7f4552433732313a207472616e7366657220746f206e6f6e2045524337323152655f8201527f63656976657220696d706c656d656e7465720000000000000000000000000000602082015250565b5f612e50603283611f78565b9150612e5b82612df6565b604082019050919050565b5f6020820190508181035f830152612e7d81612e44565b9050919050565b7f455243373231456e756d657261626c653a20636f6e73656375746976652074725f8201527f616e7366657273206e6f7420737570706f727465640000000000000000000000602082015250565b5f612ede603583611f78565b9150612ee982612e84565b604082019050919050565b5f6020820190508181035f830152612f0b81612ed2565b9050919050565b5f81519050919050565b5f82825260208201905092915050565b5f612f3682612f12565b612f408185612f1c565b9350612f50818560208601611f88565b612f5981611f96565b840191505092915050565b5f608082019050612f775f83018761208c565b612f84602083018661208c565b612f91604083018561211c565b8181036060830152612fa38184612f2c565b905095945050505050565b5f81519050612fbc81611ee6565b92915050565b5f60208284031215612fd757612fd6611eb3565b5b5f612fe484828501612fae565b91505092915050565b7f4e487b71000000000000000000000000000000000000000000000000000000005f52601160045260245ffd5b5f61302482611ffe565b915061302f83611ffe565b925082820390508181111561304757613046612fed565b5b92915050565b7f4e487b71000000000000000000000000000000000000000000000000000000005f52603160045260245ffd5b7f4552433732313a206d696e7420746f20746865207a65726f20616464726573735f82015250565b5f6130ae602083611f78565b91506130b98261307a565b602082019050919050565b5f6020820190508181035f8301526130db816130a2565b9050919050565b7f4552433732313a20746f6b656e20616c7265616479206d696e746564000000005f82015250565b5f613116601c83611f78565b9150613121826130e2565b602082019050919050565b5f6020820190508181035f8301526131438161310a565b905091905056fea26469706673582212201a094216d84f557808899bfc29d7b277514d02f7b387621458e2d244e57a7d4864736f6c634300081a0033",
  "immutableReferences": {},
  "source": "// SPDX-License-Identifier: MIT\r\npragma solidity ^0.8.0;\r\n\r\nimport \"@openzeppelin/contracts/token/ERC721/ERC721.sol\";\r\nimport \"@openzeppelin/contracts/token/ERC721/extensions/ERC721Enumerable.sol\";\r\nimport \"@openzeppelin/contracts/token/ERC721/extensions/ERC721URIStorage.sol\";\r\nimport \"@openzeppelin/contracts/utils/Counters.sol\";\r\n\r\ncontract ArtToken is ERC721Enumerable{\r\n  using Counters for Counters.Counter;\r\n\r\n  Counters.Counter private _tokenIds;\r\n  address public marketplace;\r\n\r\n  struct Item {\r\n    uint256 id;\r\n    address creator;\r\n    string uri;//metadata url\r\n  }\r\n\r\n  mapping(uint256 => Item) public Items; //id => Item\r\n\r\n  constructor () ERC721(\"ArtToken\", \"ARTK\") {}\r\n\r\n  function mint(string memory uri) public returns (uint256){\r\n    _tokenIds.increment();\r\n    uint256 newItemId = _tokenIds.current();\r\n    _safeMint(msg.sender, newItemId);\r\n    approve(marketplace, newItemId);\r\n\r\n    Items[newItemId] = Item({\r\n      id: newItemId, \r\n      creator: msg.sender,\r\n      uri: uri\r\n    });\r\n\r\n    return newItemId;\r\n  }\r\n\r\n  function tokenURI(uint256 tokenId) public view override returns (string memory) {\r\n    require(_exists(tokenId), \"ERC721URIStorage: URI query for nonexistent token\");\r\n    return Items[tokenId].uri;\r\n  }\r\n\r\n  function setMarketplace(address market) public {\r\n    //require(msg.sender ==);\r\n    marketplace = market;\r\n  }\r\n\r\n}",
  "sourcePath": "V:\\GitFiles\\MERA_NFT-Marketplace\\contracts\\ArtToken.sol",
  "compiler": {
    "name": "solc",
    "version": "0.8.26+commit.8a97fa7a.Emscripten.clang"
  },
  "schemaVersion": "3.4.16",
  "updatedAt": "2024-06-24T03:41:43.904Z",
  "networkType": "ethereum",
  "devdoc": {
    "events": {
      "Approval(address,address,uint256)": {
        "details": "Emitted when `owner` enables `approved` to manage the `tokenId` token."
      },
      "ApprovalForAll(address,address,bool)": {
        "details": "Emitted when `owner` enables or disables (`approved`) `operator` to manage all of its assets."
      },
      "Transfer(address,address,uint256)": {
        "details": "Emitted when `tokenId` token is transferred from `from` to `to`."
      }
    },
    "kind": "dev",
    "methods": {
      "approve(address,uint256)": {
        "details": "See {IERC721-approve}."
      },
      "balanceOf(address)": {
        "details": "See {IERC721-balanceOf}."
      },
      "getApproved(uint256)": {
        "details": "See {IERC721-getApproved}."
      },
      "isApprovedForAll(address,address)": {
        "details": "See {IERC721-isApprovedForAll}."
      },
      "name()": {
        "details": "See {IERC721Metadata-name}."
      },
      "ownerOf(uint256)": {
        "details": "See {IERC721-ownerOf}."
      },
      "safeTransferFrom(address,address,uint256)": {
        "details": "See {IERC721-safeTransferFrom}."
      },
      "safeTransferFrom(address,address,uint256,bytes)": {
        "details": "See {IERC721-safeTransferFrom}."
      },
      "setApprovalForAll(address,bool)": {
        "details": "See {IERC721-setApprovalForAll}."
      },
      "supportsInterface(bytes4)": {
        "details": "See {IERC165-supportsInterface}."
      },
      "symbol()": {
        "details": "See {IERC721Metadata-symbol}."
      },
      "tokenByIndex(uint256)": {
        "details": "See {IERC721Enumerable-tokenByIndex}."
      },
      "tokenOfOwnerByIndex(address,uint256)": {
        "details": "See {IERC721Enumerable-tokenOfOwnerByIndex}."
      },
      "tokenURI(uint256)": {
        "details": "See {IERC721Metadata-tokenURI}."
      },
      "totalSupply()": {
        "details": "See {IERC721Enumerable-totalSupply}."
      },
      "transferFrom(address,address,uint256)": {
        "details": "See {IERC721-transferFrom}."
      }
    },
    "version": 1
  },
  "userdoc": {
    "kind": "user",
    "methods": {},
    "version": 1
  }
}